{
  "_format": "hh-sol-artifact-1",
  "contractName": "Attestor",
  "sourceName": "contracts/Attestor.sol",
  "abi": [
    {
      "inputs": [
        {
          "internalType": "address",
          "name": "_reclaimAddress",
          "type": "address"
        }
      ],
      "stateMutability": "nonpayable",
      "type": "constructor"
    },
    {
      "anonymous": false,
      "inputs": [
        {
          "indexed": true,
          "internalType": "address",
          "name": "account",
          "type": "address"
        },
        {
          "indexed": true,
          "internalType": "address",
          "name": "operator",
          "type": "address"
        },
        {
          "indexed": false,
          "internalType": "bool",
          "name": "approved",
          "type": "bool"
        }
      ],
      "name": "ApprovalForAll",
      "type": "event"
    },
    {
      "anonymous": false,
      "inputs": [
        {
          "indexed": true,
          "internalType": "address",
          "name": "previousOwner",
          "type": "address"
        },
        {
          "indexed": true,
          "internalType": "address",
          "name": "newOwner",
          "type": "address"
        }
      ],
      "name": "OwnershipTransferred",
      "type": "event"
    },
    {
      "anonymous": false,
      "inputs": [
        {
          "indexed": true,
          "internalType": "address",
          "name": "operator",
          "type": "address"
        },
        {
          "indexed": true,
          "internalType": "address",
          "name": "from",
          "type": "address"
        },
        {
          "indexed": true,
          "internalType": "address",
          "name": "to",
          "type": "address"
        },
        {
          "indexed": false,
          "internalType": "uint256[]",
          "name": "ids",
          "type": "uint256[]"
        },
        {
          "indexed": false,
          "internalType": "uint256[]",
          "name": "values",
          "type": "uint256[]"
        }
      ],
      "name": "TransferBatch",
      "type": "event"
    },
    {
      "anonymous": false,
      "inputs": [
        {
          "indexed": true,
          "internalType": "address",
          "name": "operator",
          "type": "address"
        },
        {
          "indexed": true,
          "internalType": "address",
          "name": "from",
          "type": "address"
        },
        {
          "indexed": true,
          "internalType": "address",
          "name": "to",
          "type": "address"
        },
        {
          "indexed": false,
          "internalType": "uint256",
          "name": "id",
          "type": "uint256"
        },
        {
          "indexed": false,
          "internalType": "uint256",
          "name": "value",
          "type": "uint256"
        }
      ],
      "name": "TransferSingle",
      "type": "event"
    },
    {
      "anonymous": false,
      "inputs": [
        {
          "indexed": false,
          "internalType": "string",
          "name": "value",
          "type": "string"
        },
        {
          "indexed": true,
          "internalType": "uint256",
          "name": "id",
          "type": "uint256"
        }
      ],
      "name": "URI",
      "type": "event"
    },
    {
      "inputs": [
        {
          "internalType": "uint256",
          "name": "",
          "type": "uint256"
        }
      ],
      "name": "_URIs",
      "outputs": [
        {
          "internalType": "string",
          "name": "",
          "type": "string"
        }
      ],
      "stateMutability": "view",
      "type": "function"
    },
    {
      "inputs": [],
      "name": "_baseURI",
      "outputs": [
        {
          "internalType": "string",
          "name": "",
          "type": "string"
        }
      ],
      "stateMutability": "view",
      "type": "function"
    },
    {
      "inputs": [
        {
          "internalType": "address",
          "name": "account",
          "type": "address"
        },
        {
          "internalType": "uint256",
          "name": "id",
          "type": "uint256"
        }
      ],
      "name": "balanceOf",
      "outputs": [
        {
          "internalType": "uint256",
          "name": "",
          "type": "uint256"
        }
      ],
      "stateMutability": "view",
      "type": "function"
    },
    {
      "inputs": [
        {
          "internalType": "address[]",
          "name": "accounts",
          "type": "address[]"
        },
        {
          "internalType": "uint256[]",
          "name": "ids",
          "type": "uint256[]"
        }
      ],
      "name": "balanceOfBatch",
      "outputs": [
        {
          "internalType": "uint256[]",
          "name": "",
          "type": "uint256[]"
        }
      ],
      "stateMutability": "view",
      "type": "function"
    },
    {
      "inputs": [
        {
          "internalType": "address",
          "name": "account",
          "type": "address"
        },
        {
          "internalType": "address",
          "name": "operator",
          "type": "address"
        }
      ],
      "name": "isApprovedForAll",
      "outputs": [
        {
          "internalType": "bool",
          "name": "",
          "type": "bool"
        }
      ],
      "stateMutability": "view",
      "type": "function"
    },
    {
      "inputs": [
        {
          "internalType": "address",
          "name": "account",
          "type": "address"
        },
        {
          "internalType": "bytes",
          "name": "data",
          "type": "bytes"
        },
        {
          "components": [
            {
              "components": [
                {
                  "internalType": "string",
                  "name": "provider",
                  "type": "string"
                },
                {
                  "internalType": "string",
                  "name": "parameters",
                  "type": "string"
                },
                {
                  "internalType": "string",
                  "name": "context",
                  "type": "string"
                }
              ],
              "internalType": "struct Claims.ClaimInfo",
              "name": "claimInfo",
              "type": "tuple"
            },
            {
              "components": [
                {
                  "components": [
                    {
                      "internalType": "bytes32",
                      "name": "identifier",
                      "type": "bytes32"
                    },
                    {
                      "internalType": "address",
                      "name": "owner",
                      "type": "address"
                    },
                    {
                      "internalType": "uint32",
                      "name": "timestampS",
                      "type": "uint32"
                    },
                    {
                      "internalType": "uint32",
                      "name": "epoch",
                      "type": "uint32"
                    }
                  ],
                  "internalType": "struct Claims.CompleteClaimData",
                  "name": "claim",
                  "type": "tuple"
                },
                {
                  "internalType": "bytes[]",
                  "name": "signatures",
                  "type": "bytes[]"
                }
              ],
              "internalType": "struct Claims.SignedClaim",
              "name": "signedClaim",
              "type": "tuple"
            }
          ],
          "internalType": "struct Reclaim.Proof",
          "name": "proof",
          "type": "tuple"
        }
      ],
      "name": "mint",
      "outputs": [],
      "stateMutability": "nonpayable",
      "type": "function"
    },
    {
      "inputs": [],
      "name": "owner",
      "outputs": [
        {
          "internalType": "address",
          "name": "",
          "type": "address"
        }
      ],
      "stateMutability": "view",
      "type": "function"
    },
    {
      "inputs": [],
      "name": "renounceOwnership",
      "outputs": [],
      "stateMutability": "nonpayable",
      "type": "function"
    },
    {
      "inputs": [
        {
          "internalType": "address",
          "name": "from",
          "type": "address"
        },
        {
          "internalType": "address",
          "name": "to",
          "type": "address"
        },
        {
          "internalType": "uint256[]",
          "name": "ids",
          "type": "uint256[]"
        },
        {
          "internalType": "uint256[]",
          "name": "amounts",
          "type": "uint256[]"
        },
        {
          "internalType": "bytes",
          "name": "data",
          "type": "bytes"
        }
      ],
      "name": "safeBatchTransferFrom",
      "outputs": [],
      "stateMutability": "nonpayable",
      "type": "function"
    },
    {
      "inputs": [
        {
          "internalType": "address",
          "name": "from",
          "type": "address"
        },
        {
          "internalType": "address",
          "name": "to",
          "type": "address"
        },
        {
          "internalType": "uint256",
          "name": "id",
          "type": "uint256"
        },
        {
          "internalType": "uint256",
          "name": "amount",
          "type": "uint256"
        },
        {
          "internalType": "bytes",
          "name": "data",
          "type": "bytes"
        }
      ],
      "name": "safeTransferFrom",
      "outputs": [],
      "stateMutability": "nonpayable",
      "type": "function"
    },
    {
      "inputs": [
        {
          "internalType": "address",
          "name": "operator",
          "type": "address"
        },
        {
          "internalType": "bool",
          "name": "approved",
          "type": "bool"
        }
      ],
      "name": "setApprovalForAll",
      "outputs": [],
      "stateMutability": "nonpayable",
      "type": "function"
    },
    {
      "inputs": [
        {
          "internalType": "string",
          "name": "newuri",
          "type": "string"
        }
      ],
      "name": "setBaseURI",
      "outputs": [],
      "stateMutability": "nonpayable",
      "type": "function"
    },
    {
      "inputs": [
        {
          "internalType": "uint256",
          "name": "tokenId",
          "type": "uint256"
        },
        {
          "internalType": "string",
          "name": "newuri",
          "type": "string"
        }
      ],
      "name": "setTokenURI",
      "outputs": [],
      "stateMutability": "nonpayable",
      "type": "function"
    },
    {
      "inputs": [
        {
          "internalType": "bytes4",
          "name": "interfaceId",
          "type": "bytes4"
        }
      ],
      "name": "supportsInterface",
      "outputs": [
        {
          "internalType": "bool",
          "name": "",
          "type": "bool"
        }
      ],
      "stateMutability": "view",
      "type": "function"
    },
    {
      "inputs": [
        {
          "internalType": "address",
          "name": "newOwner",
          "type": "address"
        }
      ],
      "name": "transferOwnership",
      "outputs": [],
      "stateMutability": "nonpayable",
      "type": "function"
    },
    {
      "inputs": [
        {
          "internalType": "uint256",
          "name": "tokenId",
          "type": "uint256"
        }
      ],
      "name": "uri",
      "outputs": [
        {
          "internalType": "string",
          "name": "",
          "type": "string"
        }
      ],
      "stateMutability": "view",
      "type": "function"
    },
    {
      "inputs": [
        {
          "components": [
            {
              "components": [
                {
                  "internalType": "string",
                  "name": "provider",
                  "type": "string"
                },
                {
                  "internalType": "string",
                  "name": "parameters",
                  "type": "string"
                },
                {
                  "internalType": "string",
                  "name": "context",
                  "type": "string"
                }
              ],
              "internalType": "struct Claims.ClaimInfo",
              "name": "claimInfo",
              "type": "tuple"
            },
            {
              "components": [
                {
                  "components": [
                    {
                      "internalType": "bytes32",
                      "name": "identifier",
                      "type": "bytes32"
                    },
                    {
                      "internalType": "address",
                      "name": "owner",
                      "type": "address"
                    },
                    {
                      "internalType": "uint32",
                      "name": "timestampS",
                      "type": "uint32"
                    },
                    {
                      "internalType": "uint32",
                      "name": "epoch",
                      "type": "uint32"
                    }
                  ],
                  "internalType": "struct Claims.CompleteClaimData",
                  "name": "claim",
                  "type": "tuple"
                },
                {
                  "internalType": "bytes[]",
                  "name": "signatures",
                  "type": "bytes[]"
                }
              ],
              "internalType": "struct Claims.SignedClaim",
              "name": "signedClaim",
              "type": "tuple"
            }
          ],
          "internalType": "struct Reclaim.Proof",
          "name": "proof",
          "type": "tuple"
        }
      ],
      "name": "verifyProof",
      "outputs": [],
      "stateMutability": "view",
      "type": "function"
    }
  ],
  "bytecode": "0x60806040523480156200001157600080fd5b50604051620044f5380380620044f5833981810160405281019062000037919062000272565b604051806020016040528060008152506200005881620000c160201b60201c565b50620000796200006d620000dd60201b60201c565b620000e560201b60201c565b80600460006101000a81548173ffffffffffffffffffffffffffffffffffffffff021916908373ffffffffffffffffffffffffffffffffffffffff1602179055505062000351565b8060029080519060200190620000d9929190620001ab565b5050565b600033905090565b6000600360009054906101000a900473ffffffffffffffffffffffffffffffffffffffff16905081600360006101000a81548173ffffffffffffffffffffffffffffffffffffffff021916908373ffffffffffffffffffffffffffffffffffffffff1602179055508173ffffffffffffffffffffffffffffffffffffffff168173ffffffffffffffffffffffffffffffffffffffff167f8be0079c531659141344cd1fd0a4f28419497f9722a3daafe3b4186f6b6457e060405160405180910390a35050565b828054620001b990620002d2565b90600052602060002090601f016020900481019282620001dd576000855562000229565b82601f10620001f857805160ff191683800117855562000229565b8280016001018555821562000229579182015b82811115620002285782518255916020019190600101906200020b565b5b5090506200023891906200023c565b5090565b5b80821115620002575760008160009055506001016200023d565b5090565b6000815190506200026c8162000337565b92915050565b6000602082840312156200028557600080fd5b600062000295848285016200025b565b91505092915050565b6000620002ab82620002b2565b9050919050565b600073ffffffffffffffffffffffffffffffffffffffff82169050919050565b60006002820490506001821680620002eb57607f821691505b6020821081141562000302576200030162000308565b5b50919050565b7f4e487b7100000000000000000000000000000000000000000000000000000000600052602260045260246000fd5b62000342816200029e565b81146200034e57600080fd5b50565b61419480620003616000396000f3fe608060405234801561001057600080fd5b506004361061010a5760003560e01c806355f804b3116100a2578063a22cb46511610071578063a22cb465146102b5578063a960e69e146102d1578063e985e9c5146102ed578063f242432a1461031d578063f2fde38b146103395761010a565b806355f804b314610253578063715018a61461026f578063743976a0146102795780638da5cb5b146102975761010a565b80632b108708116100de5780632b108708146101bb5780632d8ed2c0146101d75780632eb2c2d6146102075780634e1273f4146102235761010a565b8062fdd58e1461010f57806301ffc9a71461013f5780630e89341c1461016f578063162094c41461019f575b600080fd5b61012960048036038101906101249190612980565b610355565b604051610136919061365d565b60405180910390f35b61015960048036038101906101549190612a28565b61041e565b604051610166919061339f565b60405180910390f35b61018960048036038101906101849190612b3d565b610500565b60405161019691906133ba565b60405180910390f35b6101b960048036038101906101b49190612b66565b61053e565b005b6101d560048036038101906101d09190612901565b610572565b005b6101f160048036038101906101ec9190612b3d565b610869565b6040516101fe91906133ba565b60405180910390f35b610221600480360381019061021c9190612777565b610909565b005b61023d600480360381019061023891906129bc565b6109aa565b60405161024a9190613346565b60405180910390f35b61026d60048036038101906102689190612a7a565b610b5b565b005b610277610b7d565b005b610281610b91565b60405161028e91906133ba565b60405180910390f35b61029f610c1f565b6040516102ac9190613269565b60405180910390f35b6102cf60048036038101906102ca91906128c5565b610c49565b005b6102eb60048036038101906102e69190612afc565b610c5f565b005b6103076004803603810190610302919061273b565b610ced565b604051610314919061339f565b60405180910390f35b61033760048036038101906103329190612836565b610d81565b005b610353600480360381019061034e9190612712565b610e22565b005b60008073ffffffffffffffffffffffffffffffffffffffff168373ffffffffffffffffffffffffffffffffffffffff1614156103c6576040517f08c379a00000000000000000000000000000000000000000000000000000000081526004016103bd906134bb565b60405180910390fd5b60008083815260200190815260200160002060008473ffffffffffffffffffffffffffffffffffffffff1673ffffffffffffffffffffffffffffffffffffffff16815260200190815260200160002054905092915050565b60007fd9b67a26000000000000000000000000000000000000000000000000000000007bffffffffffffffffffffffffffffffffffffffffffffffffffffffff1916827bffffffffffffffffffffffffffffffffffffffffffffffffffffffff191614806104e957507f0e89341c000000000000000000000000000000000000000000000000000000007bffffffffffffffffffffffffffffffffffffffffffffffffffffffff1916827bffffffffffffffffffffffffffffffffffffffffffffffffffffffff1916145b806104f957506104f882610ea6565b5b9050919050565b6060600560066000848152602001908152602001600020604051602001610528929190613245565b6040516020818303038152906040529050919050565b610546610f10565b8060066000848152602001908152602001600020908051906020019061056d9291906120cc565b505050565b600460009054906101000a900473ffffffffffffffffffffffffffffffffffffffff1673ffffffffffffffffffffffffffffffffffffffff1663a960e69e826040518263ffffffff1660e01b81526004016105cd919061363b565b60006040518083038186803b1580156105e557600080fd5b505afa1580156105f9573d6000803e3d6000fd5b50505050600073__$c8f28cfd65b0ed2d9989f183e800e4e54d$__633755667e8360000151604001516040518263ffffffff1660e01b815260040161063e9190613411565b60006040518083038186803b15801561065657600080fd5b505af415801561066a573d6000803e3d6000fd5b505050506040513d6000823e3d601f19601f820116820180604052508101906106939190612abb565b90506000815111156106ca5760006106aa82610f8e565b9050601d8111156106c4576106c385600060018761118a565b5b50610863565b600073__$c8f28cfd65b0ed2d9989f183e800e4e54d$__633755667e8460000151604001516040518263ffffffff1660e01b815260040161070b91906133dc565b60006040518083038186803b15801561072357600080fd5b505af4158015610737573d6000803e3d6000fd5b505050506040513d6000823e3d601f19601f820116820180604052508101906107609190612abb565b905060008151111561079657600061077782610f8e565b905060008111156107905761078f866001808861118a565b5b50610861565b600073__$c8f28cfd65b0ed2d9989f183e800e4e54d$__633755667e8560000151604001516040518263ffffffff1660e01b81526004016107d79190613446565b60006040518083038186803b1580156107ef57600080fd5b505af4158015610803573d6000803e3d6000fd5b505050506040513d6000823e3d601f19601f8201168201806040525081019061082c9190612abb565b905060008151111561085f57600061084382610f8e565b9050600a81101561085d5761085c87600260018961118a565b5b505b505b505b50505050565b6006602052806000526040600020600091509050805461088890613a6a565b80601f01602080910402602001604051908101604052809291908181526020018280546108b490613a6a565b80156109015780601f106108d657610100808354040283529160200191610901565b820191906000526020600020905b8154815290600101906020018083116108e457829003601f168201915b505050505081565b61091161133b565b73ffffffffffffffffffffffffffffffffffffffff168573ffffffffffffffffffffffffffffffffffffffff16148061095757506109568561095161133b565b610ced565b5b610996576040517f08c379a000000000000000000000000000000000000000000000000000000000815260040161098d906134db565b60405180910390fd5b6109a38585858585611343565b5050505050565b606081518351146109f0576040517f08c379a00000000000000000000000000000000000000000000000000000000081526004016109e7906135bb565b60405180910390fd5b6000835167ffffffffffffffff811115610a33577f4e487b7100000000000000000000000000000000000000000000000000000000600052604160045260246000fd5b604051908082528060200260200182016040528015610a615781602001602082028036833780820191505090505b50905060005b8451811015610b5057610afa858281518110610aac577f4e487b7100000000000000000000000000000000000000000000000000000000600052603260045260246000fd5b6020026020010151858381518110610aed577f4e487b7100000000000000000000000000000000000000000000000000000000600052603260045260246000fd5b6020026020010151610355565b828281518110610b33577f4e487b7100000000000000000000000000000000000000000000000000000000600052603260045260246000fd5b60200260200101818152505080610b4990613acd565b9050610a67565b508091505092915050565b610b63610f10565b8060059080519060200190610b799291906120cc565b5050565b610b85610f10565b610b8f60006116b1565b565b60058054610b9e90613a6a565b80601f0160208091040260200160405190810160405280929190818152602001828054610bca90613a6a565b8015610c175780601f10610bec57610100808354040283529160200191610c17565b820191906000526020600020905b815481529060010190602001808311610bfa57829003601f168201915b505050505081565b6000600360009054906101000a900473ffffffffffffffffffffffffffffffffffffffff16905090565b610c5b610c5461133b565b8383611777565b5050565b600460009054906101000a900473ffffffffffffffffffffffffffffffffffffffff1673ffffffffffffffffffffffffffffffffffffffff1663a960e69e826040518263ffffffff1660e01b8152600401610cba919061363b565b60006040518083038186803b158015610cd257600080fd5b505afa158015610ce6573d6000803e3d6000fd5b5050505050565b6000600160008473ffffffffffffffffffffffffffffffffffffffff1673ffffffffffffffffffffffffffffffffffffffff16815260200190815260200160002060008373ffffffffffffffffffffffffffffffffffffffff1673ffffffffffffffffffffffffffffffffffffffff16815260200190815260200160002060009054906101000a900460ff16905092915050565b610d8961133b565b73ffffffffffffffffffffffffffffffffffffffff168573ffffffffffffffffffffffffffffffffffffffff161480610dcf5750610dce85610dc961133b565b610ced565b5b610e0e576040517f08c379a0000000000000000000000000000000000000000000000000000000008152600401610e05906134db565b60405180910390fd5b610e1b85858585856118e4565b5050505050565b610e2a610f10565b600073ffffffffffffffffffffffffffffffffffffffff168173ffffffffffffffffffffffffffffffffffffffff161415610e9a576040517f08c379a0000000000000000000000000000000000000000000000000000000008152600401610e919061349b565b60405180910390fd5b610ea3816116b1565b50565b60007f01ffc9a7000000000000000000000000000000000000000000000000000000007bffffffffffffffffffffffffffffffffffffffffffffffffffffffff1916827bffffffffffffffffffffffffffffffffffffffffffffffffffffffff1916149050919050565b610f1861133b565b73ffffffffffffffffffffffffffffffffffffffff16610f36610c1f565b73ffffffffffffffffffffffffffffffffffffffff1614610f8c576040517f08c379a0000000000000000000000000000000000000000000000000000000008152600401610f839061355b565b60405180910390fd5b565b60008082905060008060005b835181101561117e57602e60f81b848281518110610fe1577f4e487b7100000000000000000000000000000000000000000000000000000000600052603260045260246000fd5b602001015160f81c60f81b7effffffffffffffffffffffffffffffffffffffffffffffffffffffffffffff191614156110195761117e565b6030848281518110611054577f4e487b7100000000000000000000000000000000000000000000000000000000600052603260045260246000fd5b602001015160f81c60f81b60f81c60ff16101580156110bd575060398482815181106110a9577f4e487b7100000000000000000000000000000000000000000000000000000000600052603260045260246000fd5b602001015160f81c60f81b60f81c60ff1611155b6110fc576040517f08c379a00000000000000000000000000000000000000000000000000000000081526004016110f39061357b565b60405180910390fd5b6030848281518110611137577f4e487b7100000000000000000000000000000000000000000000000000000000600052603260045260246000fd5b602001015160f81c60f81b60f81c61114f9190613959565b60ff16600a8461115f91906138ff565b61116991906138a9565b9250808061117690613acd565b915050610f9a565b50819350505050919050565b600073ffffffffffffffffffffffffffffffffffffffff168473ffffffffffffffffffffffffffffffffffffffff1614156111fa576040517f08c379a00000000000000000000000000000000000000000000000000000000081526004016111f1906135fb565b60405180910390fd5b600061120461133b565b9050600061121185611b80565b9050600061121e85611b80565b905061122f83600089858589611c46565b8460008088815260200190815260200160002060008973ffffffffffffffffffffffffffffffffffffffff1673ffffffffffffffffffffffffffffffffffffffff168152602001908152602001600020600082825461128e91906138a9565b925050819055508673ffffffffffffffffffffffffffffffffffffffff16600073ffffffffffffffffffffffffffffffffffffffff168473ffffffffffffffffffffffffffffffffffffffff167fc3d58168c5ae7397731d063d5bbf3d657854427343f4c083240f7aacaa2d0f62898960405161130c929190613678565b60405180910390a461132383600089858589611ccb565b61133283600089898989611cd3565b50505050505050565b600033905090565b8151835114611387576040517f08c379a000000000000000000000000000000000000000000000000000000000815260040161137e906135db565b60405180910390fd5b600073ffffffffffffffffffffffffffffffffffffffff168473ffffffffffffffffffffffffffffffffffffffff1614156113f7576040517f08c379a00000000000000000000000000000000000000000000000000000000081526004016113ee906134fb565b60405180910390fd5b600061140161133b565b9050611411818787878787611c46565b60005b845181101561160e576000858281518110611458577f4e487b7100000000000000000000000000000000000000000000000000000000600052603260045260246000fd5b60200260200101519050600085838151811061149d577f4e487b7100000000000000000000000000000000000000000000000000000000600052603260045260246000fd5b60200260200101519050600080600084815260200190815260200160002060008b73ffffffffffffffffffffffffffffffffffffffff1673ffffffffffffffffffffffffffffffffffffffff1681526020019081526020016000205490508181101561153e576040517f08c379a00000000000000000000000000000000000000000000000000000000081526004016115359061353b565b60405180910390fd5b81810360008085815260200190815260200160002060008c73ffffffffffffffffffffffffffffffffffffffff1673ffffffffffffffffffffffffffffffffffffffff168152602001908152602001600020819055508160008085815260200190815260200160002060008b73ffffffffffffffffffffffffffffffffffffffff1673ffffffffffffffffffffffffffffffffffffffff16815260200190815260200160002060008282546115f391906138a9565b925050819055505050508061160790613acd565b9050611414565b508473ffffffffffffffffffffffffffffffffffffffff168673ffffffffffffffffffffffffffffffffffffffff168273ffffffffffffffffffffffffffffffffffffffff167f4a39dc06d4c0dbc64b70af90fd698a233a518aa5d07e595d983b8c0526c8f7fb8787604051611685929190613368565b60405180910390a461169b818787878787611ccb565b6116a9818787878787611eba565b505050505050565b6000600360009054906101000a900473ffffffffffffffffffffffffffffffffffffffff16905081600360006101000a81548173ffffffffffffffffffffffffffffffffffffffff021916908373ffffffffffffffffffffffffffffffffffffffff1602179055508173ffffffffffffffffffffffffffffffffffffffff168173ffffffffffffffffffffffffffffffffffffffff167f8be0079c531659141344cd1fd0a4f28419497f9722a3daafe3b4186f6b6457e060405160405180910390a35050565b8173ffffffffffffffffffffffffffffffffffffffff168373ffffffffffffffffffffffffffffffffffffffff1614156117e6576040517f08c379a00000000000000000000000000000000000000000000000000000000081526004016117dd9061359b565b60405180910390fd5b80600160008573ffffffffffffffffffffffffffffffffffffffff1673ffffffffffffffffffffffffffffffffffffffff16815260200190815260200160002060008473ffffffffffffffffffffffffffffffffffffffff1673ffffffffffffffffffffffffffffffffffffffff16815260200190815260200160002060006101000a81548160ff0219169083151502179055508173ffffffffffffffffffffffffffffffffffffffff168373ffffffffffffffffffffffffffffffffffffffff167f17307eab39ab6107e8899845ad3d59bd9653f200f220920489ca2b5937696c31836040516118d7919061339f565b60405180910390a3505050565b600073ffffffffffffffffffffffffffffffffffffffff168473ffffffffffffffffffffffffffffffffffffffff161415611954576040517f08c379a000000000000000000000000000000000000000000000000000000000815260040161194b906134fb565b60405180910390fd5b600061195e61133b565b9050600061196b85611b80565b9050600061197885611b80565b9050611988838989858589611c46565b600080600088815260200190815260200160002060008a73ffffffffffffffffffffffffffffffffffffffff1673ffffffffffffffffffffffffffffffffffffffff16815260200190815260200160002054905085811015611a1f576040517f08c379a0000000000000000000000000000000000000000000000000000000008152600401611a169061353b565b60405180910390fd5b85810360008089815260200190815260200160002060008b73ffffffffffffffffffffffffffffffffffffffff1673ffffffffffffffffffffffffffffffffffffffff168152602001908152602001600020819055508560008089815260200190815260200160002060008a73ffffffffffffffffffffffffffffffffffffffff1673ffffffffffffffffffffffffffffffffffffffff1681526020019081526020016000206000828254611ad491906138a9565b925050819055508773ffffffffffffffffffffffffffffffffffffffff168973ffffffffffffffffffffffffffffffffffffffff168573ffffffffffffffffffffffffffffffffffffffff167fc3d58168c5ae7397731d063d5bbf3d657854427343f4c083240f7aacaa2d0f628a8a604051611b51929190613678565b60405180910390a4611b67848a8a86868a611ccb565b611b75848a8a8a8a8a611cd3565b505050505050505050565b60606000600167ffffffffffffffff811115611bc5577f4e487b7100000000000000000000000000000000000000000000000000000000600052604160045260246000fd5b604051908082528060200260200182016040528015611bf35781602001602082028036833780820191505090505b5090508281600081518110611c31577f4e487b7100000000000000000000000000000000000000000000000000000000600052603260045260246000fd5b60200260200101818152505080915050919050565b611c548686868686866120a1565b600073ffffffffffffffffffffffffffffffffffffffff168573ffffffffffffffffffffffffffffffffffffffff1614611cc3576040517f08c379a0000000000000000000000000000000000000000000000000000000008152600401611cba9061351b565b60405180910390fd5b505050505050565b505050505050565b611cf28473ffffffffffffffffffffffffffffffffffffffff166120a9565b15611eb2578373ffffffffffffffffffffffffffffffffffffffff1663f23a6e6187878686866040518663ffffffff1660e01b8152600401611d389594939291906132ec565b602060405180830381600087803b158015611d5257600080fd5b505af1925050508015611d8357506040513d601f19601f82011682018060405250810190611d809190612a51565b60015b611e2957611d8f613ba3565b806308c379a01415611dec5750611da461403e565b80611daf5750611dee565b806040517f08c379a0000000000000000000000000000000000000000000000000000000008152600401611de391906133ba565b60405180910390fd5b505b6040517f08c379a0000000000000000000000000000000000000000000000000000000008152600401611e209061361b565b60405180910390fd5b63f23a6e6160e01b7bffffffffffffffffffffffffffffffffffffffffffffffffffffffff1916817bffffffffffffffffffffffffffffffffffffffffffffffffffffffff191614611eb0576040517f08c379a0000000000000000000000000000000000000000000000000000000008152600401611ea79061347b565b60405180910390fd5b505b505050505050565b611ed98473ffffffffffffffffffffffffffffffffffffffff166120a9565b15612099578373ffffffffffffffffffffffffffffffffffffffff1663bc197c8187878686866040518663ffffffff1660e01b8152600401611f1f959493929190613284565b602060405180830381600087803b158015611f3957600080fd5b505af1925050508015611f6a57506040513d601f19601f82011682018060405250810190611f679190612a51565b60015b61201057611f76613ba3565b806308c379a01415611fd35750611f8b61403e565b80611f965750611fd5565b806040517f08c379a0000000000000000000000000000000000000000000000000000000008152600401611fca91906133ba565b60405180910390fd5b505b6040517f08c379a00000000000000000000000000000000000000000000000000000000081526004016120079061361b565b60405180910390fd5b63bc197c8160e01b7bffffffffffffffffffffffffffffffffffffffffffffffffffffffff1916817bffffffffffffffffffffffffffffffffffffffffffffffffffffffff191614612097576040517f08c379a000000000000000000000000000000000000000000000000000000000815260040161208e9061347b565b60405180910390fd5b505b505050505050565b505050505050565b6000808273ffffffffffffffffffffffffffffffffffffffff163b119050919050565b8280546120d890613a6a565b90600052602060002090601f0160209004810192826120fa5760008555612141565b82601f1061211357805160ff1916838001178555612141565b82800160010185558215612141579182015b82811115612140578251825591602001919060010190612125565b5b50905061214e9190612152565b5090565b5b8082111561216b576000816000905550600101612153565b5090565b600061218261217d846136c6565b6136a1565b905080838252602082019050828560208602820111156121a157600080fd5b60005b858110156121d157816121b78882612387565b8452602084019350602083019250506001810190506121a4565b5050509392505050565b60006121ee6121e9846136f2565b6136a1565b9050808382526020820190508285602086028201111561220d57600080fd5b60005b8581101561225757813567ffffffffffffffff81111561222f57600080fd5b80860161223c898261246e565b85526020850194506020840193505050600181019050612210565b5050509392505050565b600061227461226f8461371e565b6136a1565b9050808382526020820190508285602086028201111561229357600080fd5b60005b858110156122c357816122a988826126e8565b845260208401935060208301925050600181019050612296565b5050509392505050565b60006122e06122db8461374a565b6136a1565b9050828152602081018484840111156122f857600080fd5b612303848285613a28565b509392505050565b600061231e6123198461377b565b6136a1565b90508281526020810184848401111561233657600080fd5b612341848285613a28565b509392505050565b600061235c6123578461377b565b6136a1565b90508281526020810184848401111561237457600080fd5b61237f848285613a37565b509392505050565b600081359050612396816140d4565b92915050565b600082601f8301126123ad57600080fd5b81356123bd84826020860161216f565b91505092915050565b600082601f8301126123d757600080fd5b81356123e78482602086016121db565b91505092915050565b600082601f83011261240157600080fd5b8135612411848260208601612261565b91505092915050565b600081359050612429816140eb565b92915050565b60008135905061243e81614102565b92915050565b60008135905061245381614119565b92915050565b60008151905061246881614119565b92915050565b600082601f83011261247f57600080fd5b813561248f8482602086016122cd565b91505092915050565b600082601f8301126124a957600080fd5b81356124b984826020860161230b565b91505092915050565b600082601f8301126124d357600080fd5b81516124e3848260208601612349565b91505092915050565b6000606082840312156124fe57600080fd5b61250860606136a1565b9050600082013567ffffffffffffffff81111561252457600080fd5b61253084828501612498565b600083015250602082013567ffffffffffffffff81111561255057600080fd5b61255c84828501612498565b602083015250604082013567ffffffffffffffff81111561257c57600080fd5b61258884828501612498565b60408301525092915050565b6000608082840312156125a657600080fd5b6125b060806136a1565b905060006125c08482850161242f565b60008301525060206125d484828501612387565b60208301525060406125e8848285016126fd565b60408301525060606125fc848285016126fd565b60608301525092915050565b60006040828403121561261a57600080fd5b61262460406136a1565b9050600082013567ffffffffffffffff81111561264057600080fd5b61264c848285016124ec565b600083015250602082013567ffffffffffffffff81111561266c57600080fd5b61267884828501612684565b60208301525092915050565b600060a0828403121561269657600080fd5b6126a060406136a1565b905060006126b084828501612594565b600083015250608082013567ffffffffffffffff8111156126d057600080fd5b6126dc848285016123c6565b60208301525092915050565b6000813590506126f781614130565b92915050565b60008135905061270c81614147565b92915050565b60006020828403121561272457600080fd5b600061273284828501612387565b91505092915050565b6000806040838503121561274e57600080fd5b600061275c85828601612387565b925050602061276d85828601612387565b9150509250929050565b600080600080600060a0868803121561278f57600080fd5b600061279d88828901612387565b95505060206127ae88828901612387565b945050604086013567ffffffffffffffff8111156127cb57600080fd5b6127d7888289016123f0565b935050606086013567ffffffffffffffff8111156127f457600080fd5b612800888289016123f0565b925050608086013567ffffffffffffffff81111561281d57600080fd5b6128298882890161246e565b9150509295509295909350565b600080600080600060a0868803121561284e57600080fd5b600061285c88828901612387565b955050602061286d88828901612387565b945050604061287e888289016126e8565b935050606061288f888289016126e8565b925050608086013567ffffffffffffffff8111156128ac57600080fd5b6128b88882890161246e565b9150509295509295909350565b600080604083850312156128d857600080fd5b60006128e685828601612387565b92505060206128f78582860161241a565b9150509250929050565b60008060006060848603121561291657600080fd5b600061292486828701612387565b935050602084013567ffffffffffffffff81111561294157600080fd5b61294d8682870161246e565b925050604084013567ffffffffffffffff81111561296a57600080fd5b61297686828701612608565b9150509250925092565b6000806040838503121561299357600080fd5b60006129a185828601612387565b92505060206129b2858286016126e8565b9150509250929050565b600080604083850312156129cf57600080fd5b600083013567ffffffffffffffff8111156129e957600080fd5b6129f58582860161239c565b925050602083013567ffffffffffffffff811115612a1257600080fd5b612a1e858286016123f0565b9150509250929050565b600060208284031215612a3a57600080fd5b6000612a4884828501612444565b91505092915050565b600060208284031215612a6357600080fd5b6000612a7184828501612459565b91505092915050565b600060208284031215612a8c57600080fd5b600082013567ffffffffffffffff811115612aa657600080fd5b612ab284828501612498565b91505092915050565b600060208284031215612acd57600080fd5b600082015167ffffffffffffffff811115612ae757600080fd5b612af3848285016124c2565b91505092915050565b600060208284031215612b0e57600080fd5b600082013567ffffffffffffffff811115612b2857600080fd5b612b3484828501612608565b91505092915050565b600060208284031215612b4f57600080fd5b6000612b5d848285016126e8565b91505092915050565b60008060408385031215612b7957600080fd5b6000612b87858286016126e8565b925050602083013567ffffffffffffffff811115612ba457600080fd5b612bb085828601612498565b9150509250929050565b6000612bc68383612cf5565b905092915050565b6000612bda8383613218565b60208301905092915050565b612bef8161398d565b82525050565b612bfe8161398d565b82525050565b6000612c0f826137e1565b612c198185613827565b935083602082028501612c2b856137ac565b8060005b85811015612c675784840389528151612c488582612bba565b9450612c538361380d565b925060208a01995050600181019050612c2f565b50829750879550505050505092915050565b6000612c84826137ec565b612c8e8185613838565b9350612c99836137bc565b8060005b83811015612cca578151612cb18882612bce565b9750612cbc8361381a565b925050600181019050612c9d565b5085935050505092915050565b612ce08161399f565b82525050565b612cef816139ab565b82525050565b6000612d00826137f7565b612d0a8185613849565b9350612d1a818560208601613a37565b612d2381613bc5565b840191505092915050565b6000612d39826137f7565b612d43818561385a565b9350612d53818560208601613a37565b612d5c81613bc5565b840191505092915050565b6000612d7282613802565b612d7c818561386b565b9350612d8c818560208601613a37565b612d9581613bc5565b840191505092915050565b6000612dab82613802565b612db5818561387c565b9350612dc5818560208601613a37565b612dce81613bc5565b840191505092915050565b6000612de482613802565b612dee818561388d565b9350612dfe818560208601613a37565b612e0781613bc5565b840191505092915050565b60008154612e1f81613a6a565b612e29818661389e565b94506001821660008114612e445760018114612e5557612e88565b60ff19831686528186019350612e88565b612e5e856137cc565b60005b83811015612e8057815481890152600182019150602081019050612e61565b838801955050505b50505092915050565b6000612e9e60288361387c565b9150612ea982613be3565b604082019050919050565b6000612ec160268361387c565b9150612ecc82613c32565b604082019050919050565b6000612ee4602a8361387c565b9150612eef82613c81565b604082019050919050565b6000612f07602e8361387c565b9150612f1282613cd0565b604082019050919050565b6000612f2a60258361387c565b9150612f3582613d1f565b604082019050919050565b6000612f4d60148361387c565b9150612f5882613d6e565b602082019050919050565b6000612f70602a8361387c565b9150612f7b82613d97565b604082019050919050565b6000612f9360128361388d565b9150612f9e82613de6565b602082019050919050565b6000612fb660208361387c565b9150612fc182613e0f565b602082019050919050565b6000612fd960188361387c565b9150612fe482613e38565b602082019050919050565b6000612ffc60298361387c565b915061300782613e61565b604082019050919050565b600061301f60298361387c565b915061302a82613eb0565b604082019050919050565b600061304260288361387c565b915061304d82613eff565b604082019050919050565b600061306560218361387c565b915061307082613f4e565b604082019050919050565b6000613088600e8361388d565b915061309382613f9d565b602082019050919050565b60006130ab60348361387c565b91506130b682613fc6565b604082019050919050565b60006130ce60138361388d565b91506130d982614015565b602082019050919050565b600060608301600083015184820360008601526131018282612d67565b9150506020830151848203602086015261311b8282612d67565b915050604083015184820360408601526131358282612d67565b9150508091505092915050565b6080820160008201516131586000850182612ce6565b50602082015161316b6020850182612be6565b50604082015161317e6040850182613236565b5060608201516131916060850182613236565b50505050565b600060408301600083015184820360008601526131b482826130e4565b915050602083015184820360208601526131ce82826131db565b9150508091505092915050565b600060a0830160008301516131f36000860182613142565b506020830151848203608086015261320b8282612c04565b9150508091505092915050565b61322181613a01565b82525050565b61323081613a01565b82525050565b61323f81613a0b565b82525050565b60006132518285612e12565b915061325d8284612e12565b91508190509392505050565b600060208201905061327e6000830184612bf5565b92915050565b600060a0820190506132996000830188612bf5565b6132a66020830187612bf5565b81810360408301526132b88186612c79565b905081810360608301526132cc8185612c79565b905081810360808301526132e08184612d2e565b90509695505050505050565b600060a0820190506133016000830188612bf5565b61330e6020830187612bf5565b61331b6040830186613227565b6133286060830185613227565b818103608083015261333a8184612d2e565b90509695505050505050565b600060208201905081810360008301526133608184612c79565b905092915050565b600060408201905081810360008301526133828185612c79565b905081810360208301526133968184612c79565b90509392505050565b60006020820190506133b46000830184612cd7565b92915050565b600060208201905081810360008301526133d48184612da0565b905092915050565b600060408201905081810360008301526133f68184612dd9565b9050818103602083015261340981612f86565b905092915050565b6000604082019050818103600083015261342b8184612dd9565b9050818103602083015261343e8161307b565b905092915050565b600060408201905081810360008301526134608184612dd9565b90508181036020830152613473816130c1565b905092915050565b6000602082019050818103600083015261349481612e91565b9050919050565b600060208201905081810360008301526134b481612eb4565b9050919050565b600060208201905081810360008301526134d481612ed7565b9050919050565b600060208201905081810360008301526134f481612efa565b9050919050565b6000602082019050818103600083015261351481612f1d565b9050919050565b6000602082019050818103600083015261353481612f40565b9050919050565b6000602082019050818103600083015261355481612f63565b9050919050565b6000602082019050818103600083015261357481612fa9565b9050919050565b6000602082019050818103600083015261359481612fcc565b9050919050565b600060208201905081810360008301526135b481612fef565b9050919050565b600060208201905081810360008301526135d481613012565b9050919050565b600060208201905081810360008301526135f481613035565b9050919050565b6000602082019050818103600083015261361481613058565b9050919050565b600060208201905081810360008301526136348161309e565b9050919050565b600060208201905081810360008301526136558184613197565b905092915050565b60006020820190506136726000830184613227565b92915050565b600060408201905061368d6000830185613227565b61369a6020830184613227565b9392505050565b60006136ab6136bc565b90506136b78282613a9c565b919050565b6000604051905090565b600067ffffffffffffffff8211156136e1576136e0613b74565b5b602082029050602081019050919050565b600067ffffffffffffffff82111561370d5761370c613b74565b5b602082029050602081019050919050565b600067ffffffffffffffff82111561373957613738613b74565b5b602082029050602081019050919050565b600067ffffffffffffffff82111561376557613764613b74565b5b61376e82613bc5565b9050602081019050919050565b600067ffffffffffffffff82111561379657613795613b74565b5b61379f82613bc5565b9050602081019050919050565b6000819050602082019050919050565b6000819050602082019050919050565b60008190508160005260206000209050919050565b600081519050919050565b600081519050919050565b600081519050919050565b600081519050919050565b6000602082019050919050565b6000602082019050919050565b600082825260208201905092915050565b600082825260208201905092915050565b600082825260208201905092915050565b600082825260208201905092915050565b600082825260208201905092915050565b600082825260208201905092915050565b600082825260208201905092915050565b600081905092915050565b60006138b482613a01565b91506138bf83613a01565b9250827fffffffffffffffffffffffffffffffffffffffffffffffffffffffffffffffff038211156138f4576138f3613b16565b5b828201905092915050565b600061390a82613a01565b915061391583613a01565b9250817fffffffffffffffffffffffffffffffffffffffffffffffffffffffffffffffff048311821515161561394e5761394d613b16565b5b828202905092915050565b600061396482613a1b565b915061396f83613a1b565b92508282101561398257613981613b16565b5b828203905092915050565b6000613998826139e1565b9050919050565b60008115159050919050565b6000819050919050565b60007fffffffff0000000000000000000000000000000000000000000000000000000082169050919050565b600073ffffffffffffffffffffffffffffffffffffffff82169050919050565b6000819050919050565b600063ffffffff82169050919050565b600060ff82169050919050565b82818337600083830152505050565b60005b83811015613a55578082015181840152602081019050613a3a565b83811115613a64576000848401525b50505050565b60006002820490506001821680613a8257607f821691505b60208210811415613a9657613a95613b45565b5b50919050565b613aa582613bc5565b810181811067ffffffffffffffff82111715613ac457613ac3613b74565b5b80604052505050565b6000613ad882613a01565b91507fffffffffffffffffffffffffffffffffffffffffffffffffffffffffffffffff821415613b0b57613b0a613b16565b5b600182019050919050565b7f4e487b7100000000000000000000000000000000000000000000000000000000600052601160045260246000fd5b7f4e487b7100000000000000000000000000000000000000000000000000000000600052602260045260246000fd5b7f4e487b7100000000000000000000000000000000000000000000000000000000600052604160045260246000fd5b600060033d1115613bc25760046000803e613bbf600051613bd6565b90505b90565b6000601f19601f8301169050919050565b60008160e01c9050919050565b7f455243313135353a204552433131353552656365697665722072656a6563746560008201527f6420746f6b656e73000000000000000000000000000000000000000000000000602082015250565b7f4f776e61626c653a206e6577206f776e657220697320746865207a65726f206160008201527f6464726573730000000000000000000000000000000000000000000000000000602082015250565b7f455243313135353a2061646472657373207a65726f206973206e6f742061207660008201527f616c6964206f776e657200000000000000000000000000000000000000000000602082015250565b7f455243313135353a2063616c6c6572206973206e6f7420746f6b656e206f776e60008201527f6572206f7220617070726f766564000000000000000000000000000000000000602082015250565b7f455243313135353a207472616e7366657220746f20746865207a65726f20616460008201527f6472657373000000000000000000000000000000000000000000000000000000602082015250565b7f5472616e73666572206e6f7420616c6c6f776564000000000000000000000000600082015250565b7f455243313135353a20696e73756666696369656e742062616c616e636520666f60008201527f72207472616e7366657200000000000000000000000000000000000000000000602082015250565b7f22746f74616c446f6e6174696f6e73223a220000000000000000000000000000600082015250565b7f4f776e61626c653a2063616c6c6572206973206e6f7420746865206f776e6572600082015250565b7f496e76616c6964206e756d65726963616c20737472696e670000000000000000600082015250565b7f455243313135353a2073657474696e6720617070726f76616c2073746174757360008201527f20666f722073656c660000000000000000000000000000000000000000000000602082015250565b7f455243313135353a206163636f756e747320616e6420696473206c656e67746860008201527f206d69736d617463680000000000000000000000000000000000000000000000602082015250565b7f455243313135353a2069647320616e6420616d6f756e7473206c656e6774682060008201527f6d69736d61746368000000000000000000000000000000000000000000000000602082015250565b7f455243313135353a206d696e7420746f20746865207a65726f2061646472657360008201527f7300000000000000000000000000000000000000000000000000000000000000602082015250565b7f2273616c646f50756e7469223a22000000000000000000000000000000000000600082015250565b7f455243313135353a207472616e7366657220746f206e6f6e2d4552433131353560008201527f526563656976657220696d706c656d656e746572000000000000000000000000602082015250565b7f22616e6e75616c466f6f747072696e74223a2200000000000000000000000000600082015250565b600060443d101561404e576140d1565b6140566136bc565b60043d036004823e80513d602482011167ffffffffffffffff8211171561407e5750506140d1565b808201805167ffffffffffffffff81111561409c57505050506140d1565b80602083010160043d0385018111156140b95750505050506140d1565b6140c882602001850186613a9c565b82955050505050505b90565b6140dd8161398d565b81146140e857600080fd5b50565b6140f48161399f565b81146140ff57600080fd5b50565b61410b816139ab565b811461411657600080fd5b50565b614122816139b5565b811461412d57600080fd5b50565b61413981613a01565b811461414457600080fd5b50565b61415081613a0b565b811461415b57600080fd5b5056fea2646970667358221220c866ebecc72d7098fbc7219d5d5025997eb55df7a2e08fae6609fb96f913907464736f6c63430008040033",
  "linkReferences": {
    "contracts/Claims.sol": {
      "Claims": [
        {
          "length": 20,
          "start": 2402
        },
        {
          "length": 20,
          "start": 2607
        },
        {
          "length": 20,
          "start": 2811
        }
      ]
    }
  },
  "deployedLinkReferences": {
    "contracts/Claims.sol": {
      "Claims": [
        {
          "length": 20,
          "start": 1537
        },
        {
          "length": 20,
          "start": 1742
        },
        {
          "length": 20,
          "start": 1946
        }
      ]
    }
  }
}