{
  "_format": "hh-sol-artifact-1",
  "contractName": "Testmint",
  "sourceName": "contracts/Testmint.sol",
  "abi": [
    {
      "inputs": [],
      "stateMutability": "nonpayable",
      "type": "constructor"
    },
    {
      "anonymous": false,
      "inputs": [
        {
          "indexed": true,
          "internalType": "address",
          "name": "account",
          "type": "address"
        },
        {
          "indexed": true,
          "internalType": "address",
          "name": "operator",
          "type": "address"
        },
        {
          "indexed": false,
          "internalType": "bool",
          "name": "approved",
          "type": "bool"
        }
      ],
      "name": "ApprovalForAll",
      "type": "event"
    },
    {
      "anonymous": false,
      "inputs": [
        {
          "indexed": true,
          "internalType": "address",
          "name": "previousOwner",
          "type": "address"
        },
        {
          "indexed": true,
          "internalType": "address",
          "name": "newOwner",
          "type": "address"
        }
      ],
      "name": "OwnershipTransferred",
      "type": "event"
    },
    {
      "anonymous": false,
      "inputs": [
        {
          "indexed": true,
          "internalType": "address",
          "name": "operator",
          "type": "address"
        },
        {
          "indexed": true,
          "internalType": "address",
          "name": "from",
          "type": "address"
        },
        {
          "indexed": true,
          "internalType": "address",
          "name": "to",
          "type": "address"
        },
        {
          "indexed": false,
          "internalType": "uint256[]",
          "name": "ids",
          "type": "uint256[]"
        },
        {
          "indexed": false,
          "internalType": "uint256[]",
          "name": "values",
          "type": "uint256[]"
        }
      ],
      "name": "TransferBatch",
      "type": "event"
    },
    {
      "anonymous": false,
      "inputs": [
        {
          "indexed": true,
          "internalType": "address",
          "name": "operator",
          "type": "address"
        },
        {
          "indexed": true,
          "internalType": "address",
          "name": "from",
          "type": "address"
        },
        {
          "indexed": true,
          "internalType": "address",
          "name": "to",
          "type": "address"
        },
        {
          "indexed": false,
          "internalType": "uint256",
          "name": "id",
          "type": "uint256"
        },
        {
          "indexed": false,
          "internalType": "uint256",
          "name": "value",
          "type": "uint256"
        }
      ],
      "name": "TransferSingle",
      "type": "event"
    },
    {
      "anonymous": false,
      "inputs": [
        {
          "indexed": false,
          "internalType": "string",
          "name": "value",
          "type": "string"
        },
        {
          "indexed": true,
          "internalType": "uint256",
          "name": "id",
          "type": "uint256"
        }
      ],
      "name": "URI",
      "type": "event"
    },
    {
      "inputs": [
        {
          "internalType": "uint256",
          "name": "",
          "type": "uint256"
        }
      ],
      "name": "_URIs",
      "outputs": [
        {
          "internalType": "string",
          "name": "",
          "type": "string"
        }
      ],
      "stateMutability": "view",
      "type": "function"
    },
    {
      "inputs": [],
      "name": "_baseURI",
      "outputs": [
        {
          "internalType": "string",
          "name": "",
          "type": "string"
        }
      ],
      "stateMutability": "view",
      "type": "function"
    },
    {
      "inputs": [
        {
          "internalType": "address",
          "name": "account",
          "type": "address"
        },
        {
          "internalType": "uint256",
          "name": "id",
          "type": "uint256"
        }
      ],
      "name": "balanceOf",
      "outputs": [
        {
          "internalType": "uint256",
          "name": "",
          "type": "uint256"
        }
      ],
      "stateMutability": "view",
      "type": "function"
    },
    {
      "inputs": [
        {
          "internalType": "address[]",
          "name": "accounts",
          "type": "address[]"
        },
        {
          "internalType": "uint256[]",
          "name": "ids",
          "type": "uint256[]"
        }
      ],
      "name": "balanceOfBatch",
      "outputs": [
        {
          "internalType": "uint256[]",
          "name": "",
          "type": "uint256[]"
        }
      ],
      "stateMutability": "view",
      "type": "function"
    },
    {
      "inputs": [
        {
          "internalType": "address",
          "name": "account",
          "type": "address"
        },
        {
          "internalType": "address",
          "name": "operator",
          "type": "address"
        }
      ],
      "name": "isApprovedForAll",
      "outputs": [
        {
          "internalType": "bool",
          "name": "",
          "type": "bool"
        }
      ],
      "stateMutability": "view",
      "type": "function"
    },
    {
      "inputs": [
        {
          "internalType": "address",
          "name": "account",
          "type": "address"
        },
        {
          "internalType": "uint256",
          "name": "id",
          "type": "uint256"
        },
        {
          "internalType": "bytes",
          "name": "data",
          "type": "bytes"
        }
      ],
      "name": "mint",
      "outputs": [],
      "stateMutability": "nonpayable",
      "type": "function"
    },
    {
      "inputs": [],
      "name": "owner",
      "outputs": [
        {
          "internalType": "address",
          "name": "",
          "type": "address"
        }
      ],
      "stateMutability": "view",
      "type": "function"
    },
    {
      "inputs": [],
      "name": "renounceOwnership",
      "outputs": [],
      "stateMutability": "nonpayable",
      "type": "function"
    },
    {
      "inputs": [
        {
          "internalType": "address",
          "name": "from",
          "type": "address"
        },
        {
          "internalType": "address",
          "name": "to",
          "type": "address"
        },
        {
          "internalType": "uint256[]",
          "name": "ids",
          "type": "uint256[]"
        },
        {
          "internalType": "uint256[]",
          "name": "amounts",
          "type": "uint256[]"
        },
        {
          "internalType": "bytes",
          "name": "data",
          "type": "bytes"
        }
      ],
      "name": "safeBatchTransferFrom",
      "outputs": [],
      "stateMutability": "nonpayable",
      "type": "function"
    },
    {
      "inputs": [
        {
          "internalType": "address",
          "name": "from",
          "type": "address"
        },
        {
          "internalType": "address",
          "name": "to",
          "type": "address"
        },
        {
          "internalType": "uint256",
          "name": "id",
          "type": "uint256"
        },
        {
          "internalType": "uint256",
          "name": "amount",
          "type": "uint256"
        },
        {
          "internalType": "bytes",
          "name": "data",
          "type": "bytes"
        }
      ],
      "name": "safeTransferFrom",
      "outputs": [],
      "stateMutability": "nonpayable",
      "type": "function"
    },
    {
      "inputs": [
        {
          "internalType": "address",
          "name": "operator",
          "type": "address"
        },
        {
          "internalType": "bool",
          "name": "approved",
          "type": "bool"
        }
      ],
      "name": "setApprovalForAll",
      "outputs": [],
      "stateMutability": "nonpayable",
      "type": "function"
    },
    {
      "inputs": [
        {
          "internalType": "string",
          "name": "newuri",
          "type": "string"
        }
      ],
      "name": "setBaseURI",
      "outputs": [],
      "stateMutability": "nonpayable",
      "type": "function"
    },
    {
      "inputs": [
        {
          "internalType": "uint256",
          "name": "tokenId",
          "type": "uint256"
        },
        {
          "internalType": "string",
          "name": "newuri",
          "type": "string"
        }
      ],
      "name": "setTokenURI",
      "outputs": [],
      "stateMutability": "nonpayable",
      "type": "function"
    },
    {
      "inputs": [
        {
          "internalType": "bytes4",
          "name": "interfaceId",
          "type": "bytes4"
        }
      ],
      "name": "supportsInterface",
      "outputs": [
        {
          "internalType": "bool",
          "name": "",
          "type": "bool"
        }
      ],
      "stateMutability": "view",
      "type": "function"
    },
    {
      "inputs": [
        {
          "internalType": "address",
          "name": "newOwner",
          "type": "address"
        }
      ],
      "name": "transferOwnership",
      "outputs": [],
      "stateMutability": "nonpayable",
      "type": "function"
    },
    {
      "inputs": [
        {
          "internalType": "uint256",
          "name": "tokenId",
          "type": "uint256"
        }
      ],
      "name": "uri",
      "outputs": [
        {
          "internalType": "string",
          "name": "",
          "type": "string"
        }
      ],
      "stateMutability": "view",
      "type": "function"
    }
  ],
  "bytecode": "0x60806040523480156200001157600080fd5b506040518060200160405280600081525062000033816200005a60201b60201c565b5062000054620000486200007660201b60201c565b6200007e60201b60201c565b62000259565b80600290805190602001906200007292919062000144565b5050565b600033905090565b6000600360009054906101000a900473ffffffffffffffffffffffffffffffffffffffff16905081600360006101000a81548173ffffffffffffffffffffffffffffffffffffffff021916908373ffffffffffffffffffffffffffffffffffffffff1602179055508173ffffffffffffffffffffffffffffffffffffffff168173ffffffffffffffffffffffffffffffffffffffff167f8be0079c531659141344cd1fd0a4f28419497f9722a3daafe3b4186f6b6457e060405160405180910390a35050565b8280546200015290620001f4565b90600052602060002090601f016020900481019282620001765760008555620001c2565b82601f106200019157805160ff1916838001178555620001c2565b82800160010185558215620001c2579182015b82811115620001c1578251825591602001919060010190620001a4565b5b509050620001d19190620001d5565b5090565b5b80821115620001f0576000816000905550600101620001d6565b5090565b600060028204905060018216806200020d57607f821691505b602082108114156200022457620002236200022a565b5b50919050565b7f4e487b7100000000000000000000000000000000000000000000000000000000600052602260045260246000fd5b61311480620002696000396000f3fe608060405234801561001057600080fd5b50600436106100ff5760003560e01c8063715018a611610097578063a22cb46511610066578063a22cb465146102aa578063e985e9c5146102c6578063f242432a146102f6578063f2fde38b14610312576100ff565b8063715018a614610248578063743976a0146102525780638da5cb5b1461027057806394d008ef1461028e576100ff565b80632d8ed2c0116100d35780632d8ed2c0146101b05780632eb2c2d6146101e05780634e1273f4146101fc57806355f804b31461022c576100ff565b8062fdd58e1461010457806301ffc9a7146101345780630e89341c14610164578063162094c414610194575b600080fd5b61011e60048036038101906101199190611fa8565b61032e565b60405161012b9190612825565b60405180910390f35b61014e600480360381019061014991906120b7565b6103f7565b60405161015b9190612668565b60405180910390f35b61017e6004803603810190610179919061214a565b6104d9565b60405161018b9190612683565b60405180910390f35b6101ae60048036038101906101a99190612173565b610517565b005b6101ca60048036038101906101c5919061214a565b61054b565b6040516101d79190612683565b60405180910390f35b6101fa60048036038101906101f59190611e1e565b6105eb565b005b6102166004803603810190610211919061204b565b61068c565b604051610223919061260f565b60405180910390f35b61024660048036038101906102419190612109565b61083d565b005b61025061085f565b005b61025a610873565b6040516102679190612683565b60405180910390f35b610278610901565b6040516102859190612532565b60405180910390f35b6102a860048036038101906102a39190611fe4565b61092b565b005b6102c460048036038101906102bf9190611f6c565b61093d565b005b6102e060048036038101906102db9190611de2565b610953565b6040516102ed9190612668565b60405180910390f35b610310600480360381019061030b9190611edd565b6109e7565b005b61032c60048036038101906103279190611db9565b610a88565b005b60008073ffffffffffffffffffffffffffffffffffffffff168373ffffffffffffffffffffffffffffffffffffffff16141561039f576040517f08c379a0000000000000000000000000000000000000000000000000000000008152600401610396906126e5565b60405180910390fd5b60008083815260200190815260200160002060008473ffffffffffffffffffffffffffffffffffffffff1673ffffffffffffffffffffffffffffffffffffffff16815260200190815260200160002054905092915050565b60007fd9b67a26000000000000000000000000000000000000000000000000000000007bffffffffffffffffffffffffffffffffffffffffffffffffffffffff1916827bffffffffffffffffffffffffffffffffffffffffffffffffffffffff191614806104c257507f0e89341c000000000000000000000000000000000000000000000000000000007bffffffffffffffffffffffffffffffffffffffffffffffffffffffff1916827bffffffffffffffffffffffffffffffffffffffffffffffffffffffff1916145b806104d257506104d182610b0c565b5b9050919050565b606060046005600084815260200190815260200160002060405160200161050192919061250e565b6040516020818303038152906040529050919050565b61051f610b76565b80600560008481526020019081526020016000209080519060200190610546929190611ab1565b505050565b6005602052806000526040600020600091509050805461056a90612ae5565b80601f016020809104026020016040519081016040528092919081815260200182805461059690612ae5565b80156105e35780601f106105b8576101008083540402835291602001916105e3565b820191906000526020600020905b8154815290600101906020018083116105c657829003601f168201915b505050505081565b6105f3610bf4565b73ffffffffffffffffffffffffffffffffffffffff168573ffffffffffffffffffffffffffffffffffffffff161480610639575061063885610633610bf4565b610953565b5b610678576040517f08c379a000000000000000000000000000000000000000000000000000000000815260040161066f90612705565b60405180910390fd5b6106858585858585610bfc565b5050505050565b606081518351146106d2576040517f08c379a00000000000000000000000000000000000000000000000000000000081526004016106c9906127a5565b60405180910390fd5b6000835167ffffffffffffffff811115610715577f4e487b7100000000000000000000000000000000000000000000000000000000600052604160045260246000fd5b6040519080825280602002602001820160405280156107435781602001602082028036833780820191505090505b50905060005b8451811015610832576107dc85828151811061078e577f4e487b7100000000000000000000000000000000000000000000000000000000600052603260045260246000fd5b60200260200101518583815181106107cf577f4e487b7100000000000000000000000000000000000000000000000000000000600052603260045260246000fd5b602002602001015161032e565b828281518110610815577f4e487b7100000000000000000000000000000000000000000000000000000000600052603260045260246000fd5b6020026020010181815250508061082b90612b48565b9050610749565b508091505092915050565b610845610b76565b806004908051906020019061085b929190611ab1565b5050565b610867610b76565b6108716000610f6a565b565b6004805461088090612ae5565b80601f01602080910402602001604051908101604052809291908181526020018280546108ac90612ae5565b80156108f95780601f106108ce576101008083540402835291602001916108f9565b820191906000526020600020905b8154815290600101906020018083116108dc57829003601f168201915b505050505081565b6000600360009054906101000a900473ffffffffffffffffffffffffffffffffffffffff16905090565b6109388383600184611030565b505050565b61094f610948610bf4565b83836111e1565b5050565b6000600160008473ffffffffffffffffffffffffffffffffffffffff1673ffffffffffffffffffffffffffffffffffffffff16815260200190815260200160002060008373ffffffffffffffffffffffffffffffffffffffff1673ffffffffffffffffffffffffffffffffffffffff16815260200190815260200160002060009054906101000a900460ff16905092915050565b6109ef610bf4565b73ffffffffffffffffffffffffffffffffffffffff168573ffffffffffffffffffffffffffffffffffffffff161480610a355750610a3485610a2f610bf4565b610953565b5b610a74576040517f08c379a0000000000000000000000000000000000000000000000000000000008152600401610a6b90612705565b60405180910390fd5b610a81858585858561134e565b5050505050565b610a90610b76565b600073ffffffffffffffffffffffffffffffffffffffff168173ffffffffffffffffffffffffffffffffffffffff161415610b00576040517f08c379a0000000000000000000000000000000000000000000000000000000008152600401610af7906126c5565b60405180910390fd5b610b0981610f6a565b50565b60007f01ffc9a7000000000000000000000000000000000000000000000000000000007bffffffffffffffffffffffffffffffffffffffffffffffffffffffff1916827bffffffffffffffffffffffffffffffffffffffffffffffffffffffff1916149050919050565b610b7e610bf4565b73ffffffffffffffffffffffffffffffffffffffff16610b9c610901565b73ffffffffffffffffffffffffffffffffffffffff1614610bf2576040517f08c379a0000000000000000000000000000000000000000000000000000000008152600401610be990612765565b60405180910390fd5b565b600033905090565b8151835114610c40576040517f08c379a0000000000000000000000000000000000000000000000000000000008152600401610c37906127c5565b60405180910390fd5b600073ffffffffffffffffffffffffffffffffffffffff168473ffffffffffffffffffffffffffffffffffffffff161415610cb0576040517f08c379a0000000000000000000000000000000000000000000000000000000008152600401610ca790612725565b60405180910390fd5b6000610cba610bf4565b9050610cca8187878787876115ea565b60005b8451811015610ec7576000858281518110610d11577f4e487b7100000000000000000000000000000000000000000000000000000000600052603260045260246000fd5b602002602001015190506000858381518110610d56577f4e487b7100000000000000000000000000000000000000000000000000000000600052603260045260246000fd5b60200260200101519050600080600084815260200190815260200160002060008b73ffffffffffffffffffffffffffffffffffffffff1673ffffffffffffffffffffffffffffffffffffffff16815260200190815260200160002054905081811015610df7576040517f08c379a0000000000000000000000000000000000000000000000000000000008152600401610dee90612745565b60405180910390fd5b81810360008085815260200190815260200160002060008c73ffffffffffffffffffffffffffffffffffffffff1673ffffffffffffffffffffffffffffffffffffffff168152602001908152602001600020819055508160008085815260200190815260200160002060008b73ffffffffffffffffffffffffffffffffffffffff1673ffffffffffffffffffffffffffffffffffffffff1681526020019081526020016000206000828254610eac91906129d9565b9250508190555050505080610ec090612b48565b9050610ccd565b508473ffffffffffffffffffffffffffffffffffffffff168673ffffffffffffffffffffffffffffffffffffffff168273ffffffffffffffffffffffffffffffffffffffff167f4a39dc06d4c0dbc64b70af90fd698a233a518aa5d07e595d983b8c0526c8f7fb8787604051610f3e929190612631565b60405180910390a4610f548187878787876115f2565b610f628187878787876115fa565b505050505050565b6000600360009054906101000a900473ffffffffffffffffffffffffffffffffffffffff16905081600360006101000a81548173ffffffffffffffffffffffffffffffffffffffff021916908373ffffffffffffffffffffffffffffffffffffffff1602179055508173ffffffffffffffffffffffffffffffffffffffff168173ffffffffffffffffffffffffffffffffffffffff167f8be0079c531659141344cd1fd0a4f28419497f9722a3daafe3b4186f6b6457e060405160405180910390a35050565b600073ffffffffffffffffffffffffffffffffffffffff168473ffffffffffffffffffffffffffffffffffffffff1614156110a0576040517f08c379a0000000000000000000000000000000000000000000000000000000008152600401611097906127e5565b60405180910390fd5b60006110aa610bf4565b905060006110b7856117e1565b905060006110c4856117e1565b90506110d5836000898585896115ea565b8460008088815260200190815260200160002060008973ffffffffffffffffffffffffffffffffffffffff1673ffffffffffffffffffffffffffffffffffffffff168152602001908152602001600020600082825461113491906129d9565b925050819055508673ffffffffffffffffffffffffffffffffffffffff16600073ffffffffffffffffffffffffffffffffffffffff168473ffffffffffffffffffffffffffffffffffffffff167fc3d58168c5ae7397731d063d5bbf3d657854427343f4c083240f7aacaa2d0f6289896040516111b2929190612840565b60405180910390a46111c9836000898585896115f2565b6111d8836000898989896118a7565b50505050505050565b8173ffffffffffffffffffffffffffffffffffffffff168373ffffffffffffffffffffffffffffffffffffffff161415611250576040517f08c379a000000000000000000000000000000000000000000000000000000000815260040161124790612785565b60405180910390fd5b80600160008573ffffffffffffffffffffffffffffffffffffffff1673ffffffffffffffffffffffffffffffffffffffff16815260200190815260200160002060008473ffffffffffffffffffffffffffffffffffffffff1673ffffffffffffffffffffffffffffffffffffffff16815260200190815260200160002060006101000a81548160ff0219169083151502179055508173ffffffffffffffffffffffffffffffffffffffff168373ffffffffffffffffffffffffffffffffffffffff167f17307eab39ab6107e8899845ad3d59bd9653f200f220920489ca2b5937696c31836040516113419190612668565b60405180910390a3505050565b600073ffffffffffffffffffffffffffffffffffffffff168473ffffffffffffffffffffffffffffffffffffffff1614156113be576040517f08c379a00000000000000000000000000000000000000000000000000000000081526004016113b590612725565b60405180910390fd5b60006113c8610bf4565b905060006113d5856117e1565b905060006113e2856117e1565b90506113f28389898585896115ea565b600080600088815260200190815260200160002060008a73ffffffffffffffffffffffffffffffffffffffff1673ffffffffffffffffffffffffffffffffffffffff16815260200190815260200160002054905085811015611489576040517f08c379a000000000000000000000000000000000000000000000000000000000815260040161148090612745565b60405180910390fd5b85810360008089815260200190815260200160002060008b73ffffffffffffffffffffffffffffffffffffffff1673ffffffffffffffffffffffffffffffffffffffff168152602001908152602001600020819055508560008089815260200190815260200160002060008a73ffffffffffffffffffffffffffffffffffffffff1673ffffffffffffffffffffffffffffffffffffffff168152602001908152602001600020600082825461153e91906129d9565b925050819055508773ffffffffffffffffffffffffffffffffffffffff168973ffffffffffffffffffffffffffffffffffffffff168573ffffffffffffffffffffffffffffffffffffffff167fc3d58168c5ae7397731d063d5bbf3d657854427343f4c083240f7aacaa2d0f628a8a6040516115bb929190612840565b60405180910390a46115d1848a8a86868a6115f2565b6115df848a8a8a8a8a6118a7565b505050505050505050565b505050505050565b505050505050565b6116198473ffffffffffffffffffffffffffffffffffffffff16611a8e565b156117d9578373ffffffffffffffffffffffffffffffffffffffff1663bc197c8187878686866040518663ffffffff1660e01b815260040161165f95949392919061254d565b602060405180830381600087803b15801561167957600080fd5b505af19250505080156116aa57506040513d601f19601f820116820180604052508101906116a791906120e0565b60015b611750576116b6612c1e565b806308c379a0141561171357506116cb612fec565b806116d65750611715565b806040517f08c379a000000000000000000000000000000000000000000000000000000000815260040161170a9190612683565b60405180910390fd5b505b6040517f08c379a000000000000000000000000000000000000000000000000000000000815260040161174790612805565b60405180910390fd5b63bc197c8160e01b7bffffffffffffffffffffffffffffffffffffffffffffffffffffffff1916817bffffffffffffffffffffffffffffffffffffffffffffffffffffffff1916146117d7576040517f08c379a00000000000000000000000000000000000000000000000000000000081526004016117ce906126a5565b60405180910390fd5b505b505050505050565b60606000600167ffffffffffffffff811115611826577f4e487b7100000000000000000000000000000000000000000000000000000000600052604160045260246000fd5b6040519080825280602002602001820160405280156118545781602001602082028036833780820191505090505b5090508281600081518110611892577f4e487b7100000000000000000000000000000000000000000000000000000000600052603260045260246000fd5b60200260200101818152505080915050919050565b6118c68473ffffffffffffffffffffffffffffffffffffffff16611a8e565b15611a86578373ffffffffffffffffffffffffffffffffffffffff1663f23a6e6187878686866040518663ffffffff1660e01b815260040161190c9594939291906125b5565b602060405180830381600087803b15801561192657600080fd5b505af192505050801561195757506040513d601f19601f8201168201806040525081019061195491906120e0565b60015b6119fd57611963612c1e565b806308c379a014156119c05750611978612fec565b8061198357506119c2565b806040517f08c379a00000000000000000000000000000000000000000000000000000000081526004016119b79190612683565b60405180910390fd5b505b6040517f08c379a00000000000000000000000000000000000000000000000000000000081526004016119f490612805565b60405180910390fd5b63f23a6e6160e01b7bffffffffffffffffffffffffffffffffffffffffffffffffffffffff1916817bffffffffffffffffffffffffffffffffffffffffffffffffffffffff191614611a84576040517f08c379a0000000000000000000000000000000000000000000000000000000008152600401611a7b906126a5565b60405180910390fd5b505b505050505050565b6000808273ffffffffffffffffffffffffffffffffffffffff163b119050919050565b828054611abd90612ae5565b90600052602060002090601f016020900481019282611adf5760008555611b26565b82601f10611af857805160ff1916838001178555611b26565b82800160010185558215611b26579182015b82811115611b25578251825591602001919060010190611b0a565b5b509050611b339190611b37565b5090565b5b80821115611b50576000816000905550600101611b38565b5090565b6000611b67611b628461288e565b612869565b90508083825260208201905082856020860282011115611b8657600080fd5b60005b85811015611bb65781611b9c8882611ca8565b845260208401935060208301925050600181019050611b89565b5050509392505050565b6000611bd3611bce846128ba565b612869565b90508083825260208201905082856020860282011115611bf257600080fd5b60005b85811015611c225781611c088882611da4565b845260208401935060208301925050600181019050611bf5565b5050509392505050565b6000611c3f611c3a846128e6565b612869565b905082815260208101848484011115611c5757600080fd5b611c62848285612aa3565b509392505050565b6000611c7d611c7884612917565b612869565b905082815260208101848484011115611c9557600080fd5b611ca0848285612aa3565b509392505050565b600081359050611cb781613082565b92915050565b600082601f830112611cce57600080fd5b8135611cde848260208601611b54565b91505092915050565b600082601f830112611cf857600080fd5b8135611d08848260208601611bc0565b91505092915050565b600081359050611d2081613099565b92915050565b600081359050611d35816130b0565b92915050565b600081519050611d4a816130b0565b92915050565b600082601f830112611d6157600080fd5b8135611d71848260208601611c2c565b91505092915050565b600082601f830112611d8b57600080fd5b8135611d9b848260208601611c6a565b91505092915050565b600081359050611db3816130c7565b92915050565b600060208284031215611dcb57600080fd5b6000611dd984828501611ca8565b91505092915050565b60008060408385031215611df557600080fd5b6000611e0385828601611ca8565b9250506020611e1485828601611ca8565b9150509250929050565b600080600080600060a08688031215611e3657600080fd5b6000611e4488828901611ca8565b9550506020611e5588828901611ca8565b945050604086013567ffffffffffffffff811115611e7257600080fd5b611e7e88828901611ce7565b935050606086013567ffffffffffffffff811115611e9b57600080fd5b611ea788828901611ce7565b925050608086013567ffffffffffffffff811115611ec457600080fd5b611ed088828901611d50565b9150509295509295909350565b600080600080600060a08688031215611ef557600080fd5b6000611f0388828901611ca8565b9550506020611f1488828901611ca8565b9450506040611f2588828901611da4565b9350506060611f3688828901611da4565b925050608086013567ffffffffffffffff811115611f5357600080fd5b611f5f88828901611d50565b9150509295509295909350565b60008060408385031215611f7f57600080fd5b6000611f8d85828601611ca8565b9250506020611f9e85828601611d11565b9150509250929050565b60008060408385031215611fbb57600080fd5b6000611fc985828601611ca8565b9250506020611fda85828601611da4565b9150509250929050565b600080600060608486031215611ff957600080fd5b600061200786828701611ca8565b935050602061201886828701611da4565b925050604084013567ffffffffffffffff81111561203557600080fd5b61204186828701611d50565b9150509250925092565b6000806040838503121561205e57600080fd5b600083013567ffffffffffffffff81111561207857600080fd5b61208485828601611cbd565b925050602083013567ffffffffffffffff8111156120a157600080fd5b6120ad85828601611ce7565b9150509250929050565b6000602082840312156120c957600080fd5b60006120d784828501611d26565b91505092915050565b6000602082840312156120f257600080fd5b600061210084828501611d3b565b91505092915050565b60006020828403121561211b57600080fd5b600082013567ffffffffffffffff81111561213557600080fd5b61214184828501611d7a565b91505092915050565b60006020828403121561215c57600080fd5b600061216a84828501611da4565b91505092915050565b6000806040838503121561218657600080fd5b600061219485828601611da4565b925050602083013567ffffffffffffffff8111156121b157600080fd5b6121bd85828601611d7a565b9150509250929050565b60006121d383836124f0565b60208301905092915050565b6121e881612a2f565b82525050565b60006121f98261296d565b612203818561299b565b935061220e83612948565b8060005b8381101561223f57815161222688826121c7565b97506122318361298e565b925050600181019050612212565b5085935050505092915050565b61225581612a41565b82525050565b600061226682612978565b61227081856129ac565b9350612280818560208601612ab2565b61228981612c40565b840191505092915050565b600061229f82612983565b6122a981856129bd565b93506122b9818560208601612ab2565b6122c281612c40565b840191505092915050565b600081546122da81612ae5565b6122e481866129ce565b945060018216600081146122ff576001811461231057612343565b60ff19831686528186019350612343565b61231985612958565b60005b8381101561233b5781548189015260018201915060208101905061231c565b838801955050505b50505092915050565b60006123596028836129bd565b915061236482612c5e565b604082019050919050565b600061237c6026836129bd565b915061238782612cad565b604082019050919050565b600061239f602a836129bd565b91506123aa82612cfc565b604082019050919050565b60006123c2602e836129bd565b91506123cd82612d4b565b604082019050919050565b60006123e56025836129bd565b91506123f082612d9a565b604082019050919050565b6000612408602a836129bd565b915061241382612de9565b604082019050919050565b600061242b6020836129bd565b915061243682612e38565b602082019050919050565b600061244e6029836129bd565b915061245982612e61565b604082019050919050565b60006124716029836129bd565b915061247c82612eb0565b604082019050919050565b60006124946028836129bd565b915061249f82612eff565b604082019050919050565b60006124b76021836129bd565b91506124c282612f4e565b604082019050919050565b60006124da6034836129bd565b91506124e582612f9d565b604082019050919050565b6124f981612a99565b82525050565b61250881612a99565b82525050565b600061251a82856122cd565b915061252682846122cd565b91508190509392505050565b600060208201905061254760008301846121df565b92915050565b600060a08201905061256260008301886121df565b61256f60208301876121df565b818103604083015261258181866121ee565b9050818103606083015261259581856121ee565b905081810360808301526125a9818461225b565b90509695505050505050565b600060a0820190506125ca60008301886121df565b6125d760208301876121df565b6125e460408301866124ff565b6125f160608301856124ff565b8181036080830152612603818461225b565b90509695505050505050565b6000602082019050818103600083015261262981846121ee565b905092915050565b6000604082019050818103600083015261264b81856121ee565b9050818103602083015261265f81846121ee565b90509392505050565b600060208201905061267d600083018461224c565b92915050565b6000602082019050818103600083015261269d8184612294565b905092915050565b600060208201905081810360008301526126be8161234c565b9050919050565b600060208201905081810360008301526126de8161236f565b9050919050565b600060208201905081810360008301526126fe81612392565b9050919050565b6000602082019050818103600083015261271e816123b5565b9050919050565b6000602082019050818103600083015261273e816123d8565b9050919050565b6000602082019050818103600083015261275e816123fb565b9050919050565b6000602082019050818103600083015261277e8161241e565b9050919050565b6000602082019050818103600083015261279e81612441565b9050919050565b600060208201905081810360008301526127be81612464565b9050919050565b600060208201905081810360008301526127de81612487565b9050919050565b600060208201905081810360008301526127fe816124aa565b9050919050565b6000602082019050818103600083015261281e816124cd565b9050919050565b600060208201905061283a60008301846124ff565b92915050565b600060408201905061285560008301856124ff565b61286260208301846124ff565b9392505050565b6000612873612884565b905061287f8282612b17565b919050565b6000604051905090565b600067ffffffffffffffff8211156128a9576128a8612bef565b5b602082029050602081019050919050565b600067ffffffffffffffff8211156128d5576128d4612bef565b5b602082029050602081019050919050565b600067ffffffffffffffff82111561290157612900612bef565b5b61290a82612c40565b9050602081019050919050565b600067ffffffffffffffff82111561293257612931612bef565b5b61293b82612c40565b9050602081019050919050565b6000819050602082019050919050565b60008190508160005260206000209050919050565b600081519050919050565b600081519050919050565b600081519050919050565b6000602082019050919050565b600082825260208201905092915050565b600082825260208201905092915050565b600082825260208201905092915050565b600081905092915050565b60006129e482612a99565b91506129ef83612a99565b9250827fffffffffffffffffffffffffffffffffffffffffffffffffffffffffffffffff03821115612a2457612a23612b91565b5b828201905092915050565b6000612a3a82612a79565b9050919050565b60008115159050919050565b60007fffffffff0000000000000000000000000000000000000000000000000000000082169050919050565b600073ffffffffffffffffffffffffffffffffffffffff82169050919050565b6000819050919050565b82818337600083830152505050565b60005b83811015612ad0578082015181840152602081019050612ab5565b83811115612adf576000848401525b50505050565b60006002820490506001821680612afd57607f821691505b60208210811415612b1157612b10612bc0565b5b50919050565b612b2082612c40565b810181811067ffffffffffffffff82111715612b3f57612b3e612bef565b5b80604052505050565b6000612b5382612a99565b91507fffffffffffffffffffffffffffffffffffffffffffffffffffffffffffffffff821415612b8657612b85612b91565b5b600182019050919050565b7f4e487b7100000000000000000000000000000000000000000000000000000000600052601160045260246000fd5b7f4e487b7100000000000000000000000000000000000000000000000000000000600052602260045260246000fd5b7f4e487b7100000000000000000000000000000000000000000000000000000000600052604160045260246000fd5b600060033d1115612c3d5760046000803e612c3a600051612c51565b90505b90565b6000601f19601f8301169050919050565b60008160e01c9050919050565b7f455243313135353a204552433131353552656365697665722072656a6563746560008201527f6420746f6b656e73000000000000000000000000000000000000000000000000602082015250565b7f4f776e61626c653a206e6577206f776e657220697320746865207a65726f206160008201527f6464726573730000000000000000000000000000000000000000000000000000602082015250565b7f455243313135353a2061646472657373207a65726f206973206e6f742061207660008201527f616c6964206f776e657200000000000000000000000000000000000000000000602082015250565b7f455243313135353a2063616c6c6572206973206e6f7420746f6b656e206f776e60008201527f6572206f7220617070726f766564000000000000000000000000000000000000602082015250565b7f455243313135353a207472616e7366657220746f20746865207a65726f20616460008201527f6472657373000000000000000000000000000000000000000000000000000000602082015250565b7f455243313135353a20696e73756666696369656e742062616c616e636520666f60008201527f72207472616e7366657200000000000000000000000000000000000000000000602082015250565b7f4f776e61626c653a2063616c6c6572206973206e6f7420746865206f776e6572600082015250565b7f455243313135353a2073657474696e6720617070726f76616c2073746174757360008201527f20666f722073656c660000000000000000000000000000000000000000000000602082015250565b7f455243313135353a206163636f756e747320616e6420696473206c656e67746860008201527f206d69736d617463680000000000000000000000000000000000000000000000602082015250565b7f455243313135353a2069647320616e6420616d6f756e7473206c656e6774682060008201527f6d69736d61746368000000000000000000000000000000000000000000000000602082015250565b7f455243313135353a206d696e7420746f20746865207a65726f2061646472657360008201527f7300000000000000000000000000000000000000000000000000000000000000602082015250565b7f455243313135353a207472616e7366657220746f206e6f6e2d4552433131353560008201527f526563656976657220696d706c656d656e746572000000000000000000000000602082015250565b600060443d1015612ffc5761307f565b613004612884565b60043d036004823e80513d602482011167ffffffffffffffff8211171561302c57505061307f565b808201805167ffffffffffffffff81111561304a575050505061307f565b80602083010160043d03850181111561306757505050505061307f565b61307682602001850186612b17565b82955050505050505b90565b61308b81612a2f565b811461309657600080fd5b50565b6130a281612a41565b81146130ad57600080fd5b50565b6130b981612a4d565b81146130c457600080fd5b50565b6130d081612a99565b81146130db57600080fd5b5056fea2646970667358221220972b3b37947fff7898cc554626b7fc5c0322a8dc0a68b54783c7ee2230bdc5a564736f6c63430008040033",
  "linkReferences": {},
  "deployedLinkReferences": {}
}